:100000000C942A000C9447000C9447000C94470071
:100010000C9447000C9447000C9447000C94470044
:100020000C9447000C9447000C9447000C94470034
:100030000C9447000C94C8070C9447000C94FB07E1
:100040000C9447000C94E4060C9447000C94470071
:100050000C94470011241FBECFE5D8E0DEBFCDBF12
:1000600010E0A0E6B0E0EAE6F0E302C005900D92F1
:10007000A63FB107D9F711E0A6EFB0E001C01D928D
:10008000AF30B107E1F70E94FD150C9433180C94C2
:100090000000EF92FF920F931F937B018C0120E0F1
:1000A00030E040E05FE40E94F50388238CF0C80153
:1000B000B70120E030E040E05FE40E94C1010E940F
:1000C00055049B01AC01205030404040504806C0D0
:1000D000C801B7010E9455049B01AC01B901CA01D6
:1000E0001F910F91FF90EF900895A0E0B0E0EBE733
:1000F000F0E00C94FC17DC012B01FA019C9192308A
:1001000008F439C1EB018881823008F433C194309E
:1001100069F4843009F02FC111969C91119789815F
:10012000981709F428C1A0E6B0E025C1843009F48D
:1001300021C18230A9F4923009F01DC19A01AD01AC
:1001400088E0EA010990AE01E90109929E0181501F
:10015000C1F7E201898111969C918923818308C1AD
:10016000923009F407C112962D903C901397EB0141
:100170008A819B811496AD90BD90CD90DC901797AD
:10018000EC80FD800E811F819101281B390BB90184
:1001900037FF04C066277727621B730B6032710537
:1001A0000CF061C0121613066CF537014801062EDB
:1001B00004C096948794779467940A94D2F721E0C8
:1001C00030E040E050E004C0220F331F441F551FB1
:1001D0006A95D2F721503040404050402E213F21B7
:1001E00040235123211531054105510521F021E01E
:1001F00030E040E050E079018A01E628F72808293C
:1002000019293CC0232BD1F1260E371E350146019A
:10021000062E04C096948794779467940A94D2F734
:1002200021E030E040E050E004C0220F331F441FC3
:10023000551F6A95D2F721503040404050402A2146
:100240003B214C215D21211531054105510521F04E
:1002500021E030E040E050E059016A01A628B728CB
:10026000C828D9280BC0821593052CF01C01AA249C
:10027000BB24650103C0EE24FF24870111969C91E5
:10028000D20111968C91981709F445C0992339F041
:10029000A80197012A193B094C095D0906C0A6016E
:1002A00095012E193F09400B510B57FD08C01182D3
:1002B0003382228224833583468357831DC081E0A5
:1002C00081833382228288279927DC01821B930B4A
:1002D000A40BB50B84839583A683B7830DC0220F2F
:1002E000331F441F551F24833583468357838281E0
:1002F000938101979383828324813581468157813D
:10030000DA01C9010197A109B1098F5F9F4FAF4F72
:10031000BF4328F30BC0918333822282EA0CFB1C7B
:100320000C1D1D1DE482F5820683178383E0808304
:10033000248135814681578157FF1AC0C901AA27F8
:1003400097FDA095BA2F81709070A070B0705695EF
:10035000479537952795822B932BA42BB52B848318
:100360009583A683B7838281938101969383828349
:10037000DF0101C0D201CD01CDB7DEB7E2E10C94BF
:100380001818A0E2B0E0E7ECF1E00C9408186983DB
:100390007A838B839C832D833E834F835887E9E048
:1003A000EE2EF12CEC0EFD1ECE010196B7010E943F
:1003B0007E058E010F5E1F4FCE010596B8010E948B
:1003C0007E058A8991E089278A8BC701B801AE0131
:1003D000475E5F4F0E9475000E94A904A096E6E068
:1003E0000C942418A0E2B0E0E8EFF1E00C940818B7
:1003F00069837A838B839C832D833E834F835887C5
:10040000F9E0EF2EF12CEC0EFD1ECE010196B701A6
:100410000E947E058E010F5E1F4FCE010596B8012A
:100420000E947E05C701B801AE01475E5F4F0E9482
:1004300075000E94A904A096E6E00C942418A0E29E
:10044000B0E0E5E2F2E00C94FC1769837A838B83D9
:100450009C832D833E834F835887CE010196BE0136
:10046000675F7F4F0E947E05CE010596BE016F5EDD
:100470007F4F0E947E059985923088F0898982306D
:10048000C8F0943019F4823051F404C0843029F457
:10049000923081F480E690E0C6C0923049F420E0CA
:1004A0009A858A89981321E02A87CE010996BBC0D4
:1004B000823049F420E09A858A89981321E02A8BBA
:1004C000CE014196B0C02D843E844F8458886D88FB
:1004D0007E888F88988CEE24FF248701AA24BB2471
:1004E000650140E050E060E070E0E0E0F0E0C10174
:1004F00081709070892BE9F0E60CF71C081D191D1E
:100500009A01AB012A0D3B1D4C1D5D1D80E090E062
:10051000A0E0B0E0E614F7040805190520F481E036
:1005200090E0A0E0B0E0BA01A901480F591F6A1F8E
:100530007B1FAA0CBB1CCC1CDD1C97FE08C081E0F5
:1005400090E0A0E0B0E0A82AB92ACA2ADB2A3196B6
:10055000E032F10549F0660C771C881C991C569412
:10056000479437942794C3CFFA85EA892B893C892D
:100570008B859C85280F391F2E5F3F4F17C0CA01FE
:1005800081709070892B61F016950795F794E79428
:1005900080E090E0A0E0B0E8E82AF92A0A2B1B2BC3
:1005A00076956795579547952F5F3F4F77FDE7CF36
:1005B0000CC0440F551F661F771F17FD4160EE0CDE
:1005C000FF1C001F111F21503040403090E05907A0
:1005D00090E0690790E4790760F32B8F3C8FDB0193
:1005E000CA018F779070A070B07080349105A1051A
:1005F000B10561F447FD0AC0E114F10401051105DC
:1006000029F0405C5F4F6F4F7F4F40781A8EFE1786
:1006100011F081E08A8F4D8F5E8F6F8F78A383E01A
:10062000898FCE0149960E94A904A096E2E10C941C
:100630001818A8E1B0E0EFE1F3E00C940418698326
:100640007A838B839C832D833E834F835887B9E0C5
:10065000EB2EF12CEC0EFD1ECE010196B7010E948F
:100660007E058E010F5E1F4FCE010596B8010E94D8
:100670007E052985223008F47EC03989323010F495
:10068000B8017CC08A859A8989278A87243011F02D
:10069000223031F4231709F06EC060E670E06EC0BE
:1006A000343039F41D861E861F86188A1C861B86E8
:1006B00004C0323021F484E08987B7015FC02B8504
:1006C0003C858B899C89281B390B3C872B87ED84C3
:1006D000FE840F851889AD88BE88CF88D88CEA142F
:1006E000FB040C051D0540F4EE0CFF1C001F111F40
:1006F000215030403C872B8720E030E040E050E044
:1007000080E090E0A0E0B0E460E070E0EA14FB0478
:100710000C051D0540F0282B392B4A2B5B2BEA18C2
:10072000FB080C091D09B695A79597958795EE0CC2
:10073000FF1C001F111F6F5F7F4F6F31710531F775
:10074000DA01C9018F779070A070B0708034910584
:10075000A105B10561F427FD0AC0E114F10401050A
:10076000110529F0205C3F4F4F4F5F4F20782D87B8
:100770003E874F87588BBE01675F7F4FCB010E943A
:10078000A9046896EAE00C942018A8E1B0E0EBEC2C
:10079000F3E00C94081869837A838B839C832D8300
:1007A0003E834F83588789E0E82EF12CEC0EFD1E26
:1007B000CE010196B7010E947E058E010F5E1F4F8C
:1007C000CE010596B8010E947E058985823040F0F1
:1007D0008989823028F0C701B8010E94F60501C05E
:1007E0008FEF6896E6E00C942418A8E1B0E0EBEFF8
:1007F000F3E00C94081869837A838B839C832D83A0
:100800003E834F83588789E0E82EF12CEC0EFD1EC5
:10081000CE010196B7010E947E058E010F5E1F4F2B
:10082000CE010596B8010E947E058985823040F090
:100830008989823028F0C701B8010E94F60501C0FD
:100840008FEF6896E6E00C942418A8E1B0E0EBE2A4
:10085000F4E00C94081869837A838B839C832D833E
:100860003E834F83588789E0E82EF12CEC0EFD1E65
:10087000CE010196B7010E947E058E010F5E1F4FCB
:10088000CE010596B8010E947E058985823040F030
:100890008989823028F0C701B8010E94F60501C09D
:1008A00081E06896E6E00C942418ACE0B0E0EBE55B
:1008B000F4E00C940C1869837A838B839C83CE01BB
:1008C0000196BE016B5F7F4F0E947E058D81823055
:1008D00061F1823050F1843021F48E81882351F10E
:1008E0002EC02F81388537FD20C06E812F31310514
:1008F0001CF06623F9F023C08EE190E0821B930B7D
:1009000029853A854B855C8504C056954795379572
:1009100027958A95D2F76623B1F05095409530958A
:1009200021953F4F4F4F5F4F0EC020E030E040E039
:1009300050E009C02FEF3FEF4FEF5FE704C020E02A
:1009400030E040E050E8B901CA012C96E2E00C9496
:100950002818DF92EF92FF920F931F93FC01E4801F
:10096000F58006811781D1808081823048F480E053
:1009700090E0A0E1B0E0E82AF92A0A2B1B2BA5C0E1
:10098000843009F49FC0823021F4EE24FF248701D3
:1009900005C0E114F1040105110519F4E0E0F0E0EF
:1009A00096C0628173819FEF623879070CF05BC05B
:1009B00022E83FEF261B370B2A3131052CF020E0CF
:1009C00030E040E050E02AC0B801A701022E04C088
:1009D00076956795579547950A94D2F781E090E010
:1009E000A0E0B0E004C0880F991FAA1FBB1F2A9582
:1009F000D2F70197A109B1098E219F21A023B1232C
:100A00000097A105B10521F081E090E0A0E0B0E001
:100A10009A01AB01282B392B4A2B5B2BDA01C90138
:100A20008F779070A070B07080349105A105B105EA
:100A300039F427FF09C0205C3F4F4F4F5F4F04C080
:100A4000215C3F4F4F4F5F4FE0E0F0E02030A0E0EF
:100A50003A07A0E04A07A0E45A0710F0E1E0F0E00E
:100A600079018A0127C06038710564F5FB01E158FE
:100A7000FF4FD801C7018F779070A070B07080349D
:100A80009105A105B10539F4E7FE0DC080E490E0C1
:100A9000A0E0B0E004C08FE390E0A0E0B0E0E80E9A
:100AA000F91E0A1F1B1F17FF05C016950795F7941F
:100AB000E794319687E016950795F794E7948A9521
:100AC000D1F705C0EE24FF248701EFEFF0E06E2F91
:100AD000679566276795902F9F77D794DD24D794E5
:100AE0008E2F8695492F462B582F5D29B701CA01B5
:100AF0001F910F91FF90EF90DF900895FC01DB01B3
:100B0000408151812281622F6F7770E0221F22275E
:100B1000221F9381892F880F822B282F30E0991F65
:100B20009927991F11969C93119721153105A9F5C5
:100B3000411551056105710511F482E037C082E865
:100B40009FEF13969C938E9312979A01AB0167E0E7
:100B5000220F331F441F551F6A95D1F783E08C93F2
:100B60000DC0220F331F441F551F12968D919C916B
:100B70001397019713969C938E931297203080E0E1
:100B8000380780E0480780E4580758F314962D93FF
:100B90003D934D935C93179708952F3F310579F45A
:100BA000411551056105710519F484E08C93089590
:100BB00064FF03C081E08C9312C01C9210C02F57B9
:100BC000304013963C932E93129783E08C9387E0EA
:100BD000440F551F661F771F8A95D1F770641496CE
:100BE0004D935D936D937C93179708951F93DC014C
:100BF000FB019C91923008F447C08081823008F458
:100C000043C0943051F411961C91843099F5818140
:100C1000682F70E0611B71093FC0843021F0923071
:100C200031F48230B9F18181882389F12DC0119688
:100C30001C9111978230F1F081811817D9F4129626
:100C40002D913C911397828193818217930794F0A1
:100C500028173907BCF014968D919D910D90BC9189
:100C6000A02D2481358146815781281739074A07ED
:100C70005B0718F4112341F00AC082179307A407F9
:100C8000B50740F4112319F061E070E005C06FEF83
:100C90007FEF02C060E070E0CB011F910895DF9309
:100CA000CF9300D00F92CDB7DEB789837B836A8361
:100CB000ECE3F0E08081882F90E0827090700097E4
:100CC000B9F7EEE3F0E08981882F90E0918380838B
:100CD000ACE3B0E0ECE3F0E0808181608C93EDE385
:100CE000F0E08081EA81FB8180830F900F900F906C
:100CF000CF91DF910895DF93CF9300D0CDB7DEB7CA
:100D000089836A83ECE3F0E08081882F90E0827031
:100D100090700097B9F7EEE3F0E08981882F90E0BA
:100D200091838083ACE3B0E0ECE3F0E0808181600C
:100D30008C93EDE3F0E090818A81981791F0EDE3D8
:100D4000F0E08A818083ACE3B0E0ECE3F0E0808106
:100D500084608C93ACE3B0E0ECE3F0E080818260EF
:100D60008C930F900F90CF91DF910895DF93CF93E5
:100D7000CDB7DEB7ACE3B0E0ECE3F0E080818860B3
:100D80008C93CF91DF910895DF93CF93CDB7DEB7EA
:100D9000ACE3B0E0ECE3F0E08081877F8C93CF910F
:100DA000DF910895DF93CF9300D0CDB7DEB79A835C
:100DB000898389819A819093F7008093F6000F9040
:100DC0000F90CF91DF9108951F920F920FB60F925F
:100DD00011242F933F934F935F936F937F938F9340
:100DE0009F93AF93BF93EF93FF93DF93CF93CDB7D1
:100DF000DEB78091F6009091F700009729F0E0911E
:100E0000F600F091F7000995CF91DF91FF91EF91F6
:100E1000BF91AF919F918F917F916F915F914F9112
:100E20003F912F910F900FBE0F901F901895DF9359
:100E3000CF9300D00F92CDB7DEB71B821A821982F2
:100E4000ABE2B0E0EBE2F0E080818D7F8C938B81B0
:100E500080688B838B818F7B8B838B818F7E8B8351
:100E60008B818F7D8B838B8182608B838B81846070
:100E70008B83AAE2B0E0EAE2F0E080818B7F8C9382
:100E80008B81877F8B83E0E4F0E08B81808380918E
:100E9000BC009091BD009A838983E0E4F0E08981F1
:100EA0009A81892F99278083E9E2F0E08981808304
:100EB000AAE2B0E0EAE2F0E0808180618C93AAE2ED
:100EC000B0E0EAE2F0E0808188608C930F900F90B0
:100ED0000F90CF91DF910895DF93CF93CDB7DEB719
:100EE000AAE2B0E0EAE2F0E0808180688C93CF91E2
:100EF000DF910895DF93CF93CDB7DEB7AAE2B0E0DC
:100F0000EAE2F0E080818F778C93CF91DF910895B2
:100F1000DF93CF93CDB7DEB7AAE2B0E0EAE2F0E02C
:100F2000808180648C93CF91DF910895DF93CF937C
:100F3000CDB7DEB7AAE2B0E0EAE2F0E080818F7BD5
:100F40008C93CF91DF910895DF93CF9300D0CDB7ED
:100F5000DEB79A83898389819A819093F90080937F
:100F6000F8000F900F90CF91DF910895DF93CF930A
:100F700000D0CDB7DEB79A83898389819A81909317
:100F8000FB008093FA000F900F90CF91DF910895AE
:100F90001F920F920FB60F9211242F933F934F93EE
:100FA0005F936F937F938F939F93AF93BF93EF93D1
:100FB000FF93DF93CF93CDB7DEB78091F800909188
:100FC000F900009729F0E091F800F091F9000995F7
:100FD000CF91DF91FF91EF91BF91AF919F918F9151
:100FE0007F916F915F914F913F912F910F900FBE25
:100FF0000F901F9018951F920F920FB60F92112409
:101000002F933F934F935F936F937F938F939F9310
:10101000AF93BF93EF93FF93DF93CF93CDB7DEB73B
:101020008091FA009091FB00009729F0E091FA007E
:10103000F091FB000995CF91DF91FF91EF91BF9166
:10104000AF919F918F917F916F915F914F913F9160
:101050002F910F900FBE0F901F901895DF93CF9395
:101060000F92CDB7DEB78983ECE2F0E0898180830F
:101070000F90CF91DF910895DF93CF93CDB7DEB777
:10108000ECE2F0E08081CF91DF910895DF93CF9380
:101090000F92CDB7DEB78983EBE2F0E080818295D5
:1010A00086958770882F90E0817090700097A1F3EB
:1010B000ECE2F0E0898180830F90CF91DF91089579
:1010C000DF93CF93CDB7DEB7EBE2F0E080818823EA
:1010D000DCF7ECE2F0E08081CF91DF910895DF93BF
:1010E000CF9300D00F92CDB7DEB79B838A8319824E
:1010F000EBE2F0E0808188234CF4ECE2F0E08081C8
:10110000EA81FB81808381E0898301C01982898122
:101110000F900F900F90CF91DF910895DF93CF93B1
:1011200000D000D000D0CDB7DEB79A838983E981A3
:10113000FA818081282F30E03E832D838D819E812E
:10114000009701F12D813E8121303105A9F58CE018
:1011500061E00E943E0B8DE061E00E943E0B8EE05C
:1011600060E00E943E0B8FE061E00E943E0BEDE2EA
:10117000F0E0808180618083EDE2F0E08081806436
:1011800080831AC08CE060E00E943E0B8DE060E03E
:101190000E943E0B8EE061E00E943E0B8FE060E01B
:1011A0000E943E0BEDE2F0E080818F7E8083EDE2D5
:1011B000F0E0808180648083E981FA818281282F38
:1011C00030E03C832B838B819C81009759F02B81ED
:1011D0003C812130310559F4EDE2F0E081818160FC
:1011E000818305C0EDE2F0E081818E7F8183ADE2F5
:1011F000B0E0EDE2F0E09081E981FA818181892B14
:101200008C93ADE2B0E0EDE2F0E08081282FE9813F
:10121000FA818581882F90E0880F991F880F991F88
:10122000822B8C93ADE2B0E0EDE2F0E08081282FDC
:10123000E981FA818381882F90E0880F991F829538
:101240009295907F9827807F9827822B8C93ADE290
:10125000B0E0EDE2F0E08081282FE981FA8184811D
:10126000882F90E09695982F882797958795822BC1
:101270008C9326960FB6F894DEBF0FBECDBFCF91EC
:10128000DF910895DF93CF930F92CDB7DEB78983B7
:10129000EDE2F0E089818283EDE2F0E08181807807
:1012A0008823D1F3EDE2F0E082810F90CF91DF91BE
:1012B0000895DF93CF9300D00F92CDB7DEB79B8315
:1012C0008A8319820EC08981282F30E08A819B8110
:1012D000FC01E20FF31F80810E94420989818F5F28
:1012E00089838981282F30E08A819B81FC01E20F6C
:1012F000F31F8081882339F70F900F900F90CF91C3
:10130000DF910895DF93CF9300D000D0CDB7DEB743
:1013100089836A83898161E00E943E0B8A81282F3C
:1013200030E03C832B838B819C81009731F02B81B3
:101330003C812130310531F009C0898161E00E9492
:10134000AD0904C0898160E00E94AD090F900F9043
:101350000F900F90CF91DF910895DF93CF93CDB78A
:10136000DEB72A970FB6F894DEBF0FBECDBF8B83D2
:101370006C838B818695869586958A838B81877011
:1013800089838C81282F30E03A87298789859A853F
:10139000009709F475C029853A852130310509F097
:1013A000E2C08A81282F30E038872F838F8198858B
:1013B0008130910549F12F813885223031052CF497
:1013C0008F819885009761F0CEC02F8138852230BB
:1013D000310571F18F81988583309105E9F1C3C0A2
:1013E000ABE3B0E0EBE3F0E08081482F8981282F68
:1013F00030E081E090E0022E02C0880F991F0A942D
:10140000E2F7842B8C93AFC0A8E3B0E0E8E3F0E010
:101410008081482F8981282F30E081E090E0022EE2
:1014200002C0880F991F0A94E2F7842B8C939BC00B
:10143000A5E3B0E0E5E3F0E08081482F8981282F23
:1014400030E081E090E0022E02C0880F991F0A94DC
:10145000E2F7842B8C9387C0A2E3B0E0E2E3F0E0F4
:101460008081482F8981282F30E081E090E0022E92
:1014700002C0880F991F0A94E2F7842B8C9373C0E3
:101480008A81282F30E03E832D838D819E8181309B
:10149000910559F12D813E81223031052CF48D8149
:1014A0009E81009769F05FC02D813E812230310519
:1014B00089F18D819E818330910509F440C053C02C
:1014C000ABE3B0E0EBE3F0E08081482F8981282F87
:1014D00030E081E090E0022E02C0880F991F0A944C
:1014E000E2F7809584238C933EC0A8E3B0E0E8E364
:1014F000F0E08081482F8981282F30E081E090E062
:10150000022E02C0880F991F0A94E2F78095842367
:101510008C9329C0A5E3B0E0E5E3F0E08081482F9B
:101520008981282F30E081E090E0022E02C0880FF0
:10153000991F0A94E2F7809584238C9314C0A2E348
:10154000B0E0E2E3F0E08081482F8981282F30E08D
:1015500081E090E0022E02C0880F991F0A94E2F702
:10156000809584238C932A960FB6F894DEBF0FBE25
:10157000CDBFCF91DF910895DF93CF9300D000D0FE
:1015800000D0CDB7DEB78C838C8186958695869505
:101590008B838C8187708A8319828B81282F30E01E
:1015A0003E832D834D815E814130510541F18D8116
:1015B0009E818230910534F42D813E8121153105C3
:1015C00061F052C04D815E814230510551F18D81F3
:1015D0009E8183309105B9F147C0E9E3F0E0808155
:1015E000282F30E08A81882F90E0A90102C055950C
:1015F00047958A95E2F7CA018170898335C0E6E391
:10160000F0E08081282F30E08A81882F90E0A901C6
:1016100002C0559547958A95E2F7CA018170898382
:1016200023C0E3E3F0E08081282F30E08A81882F17
:1016300090E0A90102C0559547958A95E2F7CA0145
:101640008170898311C0E0E3F0E08081282F30E0D1
:101650008A81882F90E0A90102C0559547958A9507
:10166000E2F7CA0181708983898126960FB6F894C2
:10167000DEBF0FBECDBFCF91DF910895DF93CF9333
:10168000CDB7DEB72A970FB6F894DEBF0FBECDBF39
:101690008B836C838B818695869586958A838B81D7
:1016A000877089838C81282F30E03A872987898544
:1016B0009A85009739F029853A852130310509F45A
:1016C00075C0E2C08A81282F30E038872F838F8150
:1016D00098858130910559F12F8138852230310567
:1016E0002CF48F819885009769F0CEC02F813885C2
:1016F0002230310589F18F8198858330910509F475
:1017000040C0C2C0AAE3B0E0EAE3F0E08081482F25
:101710008981282F30E081E090E0022E02C0880FFE
:10172000991F0A94E2F7809584238C93ADC0A7E3B8
:10173000B0E0E7E3F0E08081482F8981282F30E096
:1017400081E090E0022E02C0880F991F0A94E2F710
:10175000809584238C9398C0A4E3B0E0E4E3F0E0A8
:101760008081482F8981282F30E081E090E0022E8F
:1017700002C0880F991F0A94E2F7809584238C9306
:1017800083C0A1E3B0E0E1E3F0E08081482F8981EC
:10179000282F30E081E090E0022E02C0880F991FD0
:1017A0000A94E2F7809584238C936EC08A81282F57
:1017B00030E03E832D838D819E818130910549F1FA
:1017C0002D813E81223031052CF48D819E81009740
:1017D00061F05AC02D813E812230310571F18D8139
:1017E0009E8183309105E9F14FC0AAE3B0E0EAE3BE
:1017F000F0E08081482F8981282F30E081E090E05F
:10180000022E02C0880F991F0A94E2F7842B8C9352
:101810003BC0A7E3B0E0E7E3F0E08081482F898197
:10182000282F30E081E090E0022E02C0880F991F3F
:101830000A94E2F7842B8C9327C0A4E3B0E0E4E39E
:10184000F0E08081482F8981282F30E081E090E00E
:10185000022E02C0880F991F0A94E2F7842B8C9302
:1018600013C0A1E3B0E0E1E3F0E08081482F89817B
:10187000282F30E081E090E0022E02C0880F991FEF
:101880000A94E2F7842B8C932A960FB6F894DEBF65
:101890000FBECDBFCF91DF910895DF93CF9300D0DE
:1018A00000D00F92CDB7DEB78B838B81869586955E
:1018B00086958A838B81877089838A81282F30E07F
:1018C0003D832C838C819D818130910549F12C8150
:1018D0003D81223031052CF48C819D81009761F08F
:1018E0005AC02C813D812230310571F18C819D815E
:1018F00083309105E9F14FC0ABE3B0E0EBE3F0E0FA
:101900008081482F8981282F30E081E090E0022EED
:1019100002C0880F991F0A94E2F784278C933BC07A
:10192000A8E3B0E0E8E3F0E08081482F8981282F28
:1019300030E081E090E0022E02C0880F991F0A94E7
:10194000E2F784278C9327C0A5E3B0E0E5E3F0E05D
:101950008081482F8981282F30E081E090E0022E9D
:1019600002C0880F991F0A94E2F784278C9313C052
:10197000A2E3B0E0E2E3F0E08081482F8981282FE4
:1019800030E081E090E0022E02C0880F991F0A9497
:10199000E2F784278C930F900F900F900F900F9089
:1019A000CF91DF910895DF93CF9300D000D0CDB7D2
:1019B000DEB789836A838981282F30E03C832B83BB
:1019C0008B819C8181309105D1F02B813C8122302B
:1019D00031052CF48B819C81009761F01EC02B8116
:1019E0003C812230310581F08B819C8183309105CF
:1019F00081F013C0EBE3F0E08A8180830EC0E8E35E
:101A0000F0E08A81808309C0E5E3F0E08A81808389
:101A100004C0E2E3F0E08A8180830F900F900F9082
:101A20000F90CF91DF910895DF93CF9300D000D036
:101A30000F92CDB7DEB78A838A81282F30E03D83AD
:101A40002C838C819D8181309105E1F02C813D8139
:101A5000223031052CF48C819D81009761F027C0E4
:101A60002C813D8122303105A1F08C819D81833014
:101A70009105B1F01CC0EBE3F0E08081898399818E
:101A80009B8316C0E8E3F0E08081898329812B8362
:101A90000FC0E5E3F0E08081898339813B8308C092
:101AA000E2E3F0E08081898389818B8301C01B821E
:101AB0008B810F900F900F900F900F90CF91DF912F
:101AC0000895DF93CF9300D000D0CDB7DEB78983E0
:101AD0006A838981282F30E03C832B838B819C8112
:101AE00081309105D1F02B813C81223031052CF4DD
:101AF0008B819C81009761F01EC02B813C8122303C
:101B0000310581F08B819C818330910581F013C078
:101B1000EAE3F0E08A8180830EC0E7E3F0E08A81A7
:101B2000808309C0E4E3F0E08A81808304C0E1E3BC
:101B3000F0E08A8180830F900F900F900F90CF91EB
:101B4000DF910895DF93CF9300D000D00F92CDB7EF
:101B5000DEB789836A834B838981282F30E03D83F8
:101B60002C838C819D818130910529F12C813D81CF
:101B7000223031052CF48C819D81009761F04AC0A0
:101B80002C813D812230310531F18C819D81833062
:101B9000910589F13FC0ABE3B0E0EBE3F0E0808179
:101BA000982F8A818095292F28239B818A818923D8
:101BB000822B8C932FC0A8E3B0E0E8E3F0E08081B3
:101BC000982F8A818095292F28239B818A818923B8
:101BD000822B8C931FC0A5E3B0E0E5E3F0E08081A9
:101BE000982F8A818095292F28239B818A81892398
:101BF000822B8C930FC0A2E3B0E0E2E3F0E080819F
:101C0000982F8A818095292F28239B818A81892377
:101C1000822B8C930F900F900F900F900F90CF917D
:101C2000DF910895DF93CF93CDB7DEB729970FB635
:101C3000F894DEBF0FBECDBF1B821B8205C18B8116
:101C40008695869586958A838B81877089838B811B
:101C5000882F90E0880F991FFC01E859FF4F808181
:101C6000282F30E03987288788859985009739F0B3
:101C7000288539852130310509F475C0E2C08A8193
:101C8000282F30E03F832E838E819F818130910504
:101C900059F12E813F81223031052CF48E819F81B4
:101CA000009769F0CEC02E813F812230310589F145
:101CB0008E819F818330910509F440C0C2C0AAE3A0
:101CC000B0E0EAE3F0E08081482F8981282F30E0FE
:101CD00081E090E0022E02C0880F991F0A94E2F77B
:101CE000809584238C93ADC0A7E3B0E0E7E3F0E0F8
:101CF0008081482F8981282F30E081E090E0022EFA
:101D000002C0880F991F0A94E2F7809584238C9370
:101D100098C0A4E3B0E0E4E3F0E08081482F89813B
:101D2000282F30E081E090E0022E02C0880F991F3A
:101D30000A94E2F7809584238C9383C0A1E3B0E0FA
:101D4000E1E3F0E08081482F8981282F30E081E0B5
:101D500090E0022E02C0880F991F0A94E2F7809546
:101D600084238C936EC08A81282F30E03D832C839E
:101D70008C819D818130910549F12C813D812230FA
:101D800031052CF48C819D81009761F05AC02C8123
:101D90003D812230310571F18C819D818330910527
:101DA000E9F14FC0AAE3B0E0EAE3F0E08081482F18
:101DB0008981282F30E081E090E0022E02C0880F58
:101DC000991F0A94E2F7842B8C933BC0A7E3B0E001
:101DD000E7E3F0E08081482F8981282F30E081E01F
:101DE00090E0022E02C0880F991F0A94E2F7842B1C
:101DF0008C9327C0A4E3B0E0E4E3F0E08081482FB7
:101E00008981282F30E081E090E0022E02C0880F07
:101E1000991F0A94E2F7842B8C9313C0A1E3B0E0DE
:101E2000E1E3F0E08081482F8981282F30E081E0D4
:101E300090E0022E02C0880F991F0A94E2F7842BCB
:101E40008C938B818F5F8B838B81803208F4F7CEEC
:101E500029960FB6F894DEBF0FBECDBFCF91DF91AC
:101E60000895DF93CF930F92CDB7DEB70E94AA0FEC
:101E70008AE26DE80E946A0F8BE26EE30E946A0FAD
:101E80008CE26EE10E946A0F8DE260E00E946A0FB0
:101E900085E160E40E946A0F81E16DE30E946A0FB0
:101EA00084E10E94890F89838981882F90E0837063
:101EB0009070009759F48981982F936084E1692F7D
:101EC0000E946A0F84E10E94890F89830F90CF914D
:101ED000DF910895DF93CF9300D0CDB7DEB789832C
:101EE0006A838CE061E00E9482098981882F90E0FA
:101EF000880F991F8E770E9442098A810E944209A9
:101F00008CE060E00E9482090F900F90CF91DF91EA
:101F10000895DF93CF9300D0CDB7DEB78A838CE0EE
:101F200061E00E9482098A81882F90E0880F991FC2
:101F30008E7780680E94420980E00E94420989836E
:101F40008CE060E00E94820989810F900F90CF9110
:101F5000DF910895DF93CF93CDB7DEB781E06FE0D7
:101F60000E946A0FCF91DF9108950F931F93DF9323
:101F7000CF93CDB7DEB728970FB6F894DEBF0FBE6C
:101F8000CDBF8E8378876F838DE067E00E946A0FF4
:101F9000EF81F8858E8180832F813885EF81F885E8
:101FA000DE0112968CE0B90141E09F018D010E9493
:101FB000F40F89838981813049F48A819B81AC81C6
:101FC000BD8180319105A105B10511F083E08983C0
:101FD000898128960FB6F894DEBF0FBECDBFCF9192
:101FE000DF911F910F9108950F931F93DF93CF936C
:101FF000CDB7DEB764970FB6F894DEBF0FBECDBF86
:102000008B877D876C874E87388B2F871A8B098B40
:1020100083E08A87198618868B85282F30E03C8BD1
:102020002B8B8B899C898C30910551F0EB89FC8935
:10203000EE30F10549F482E1898780E1888704C0A8
:1020400087E7898780E3888784E00E94890F8E83F1
:102050008E81982F9F7784E0692F0E946A0F8AE013
:102060000E94890F8E838E81982F90688AE0692F55
:102070000E946A0F81E060E00E946A0F19821A8252
:102080001B821C8217C029813A818C859D85FC01A9
:10209000E20FF31F908189E0692F0E946A0F898106
:1020A0009A81AB81BC810196A11DB11D89839A8360
:1020B000AB83BC838E85282F30E040E050E08981DF
:1020C0009A81AB81BC8182179307A407B507D8F228
:1020D00081E06B850E946A0F8B858C3059F48DE00E
:1020E0000E94890F8E838E81982F90688DE0692FD2
:1020F0000E946A0F80ED97E0A0E0B0E089839A83A8
:10210000AB83BC8384E00E94890F8E8389819A818E
:10211000AB81BC810197A109B10989839A83AB8303
:10212000BC8389819A81AB81BC810097A105B105EF
:1021300061F08E81882F90E081709070009729F473
:102140008E81988589238823E9F28DE00E94890F8A
:102150008D838D81982F9F778DE0692F0E946A0F64
:1021600089819A81AB81BC810097A105B10509F4F1
:102170008CC086E00E94890F882F90E08B71907050
:10218000009709F080C081E08A879E818985892334
:10219000882F90E081709070882311F082E08A8708
:1021A0008B858C3009F071C08AE00E94890F8E8384
:1021B0008CE00E94890F87708F838F818823D9F0EC
:1021C0008E81882F90E001979C01220F331F220FF0
:1021D000331F220F331F8F81882F90E0820F931FB0
:1021E000AA2797FDA095BA2FE989FA898083918360
:1021F000A283B38313C08E81882F90E0880F991F2C
:10220000880F991F880F991FAA2797FDA095BA2FAD
:10221000E989FA8980839183A283B3838E8188239D
:1022200011F481E08E838E81813110F080E18E8304
:1022300019821A821B821C8217C029813A818F85DC
:1022400098898C01020F131F89E00E94890FF80101
:10225000808389819A81AB81BC810196A11DB11DCA
:1022600089839A83AB83BC838E81282F30E040E042
:1022700050E089819A81AB81BC8182179307A407C2
:10228000B507D8F202C083E08A878A8564960FB6C4
:10229000F894DEBF0FBECDBFCF91DF911F910F919C
:1022A00008950F931F93DF93CF93CDB7DEB7299790
:1022B0000FB6F894DEBF0FBECDBF9987888719820D
:1022C0008DE060E00E946A0FE885F98583E98083EC
:1022D00088859985FC01319680E28083288539853F
:1022E000E885F985DE0114968CE0B90142E09F0192
:1022F0008D010E94F40F8B838B81813011F51A823E
:102300000FC08A81282F30E088859985FC01E20F73
:10231000F31F90818981892789838A818F5F8A83CE
:102320008A81843070F38A81282F30E088859985EE
:10233000FC01E20FF31F90818981981711F083E06F
:102340008B838B8129960FB6F894DEBF0FBECDBF6D
:10235000CF91DF911F910F910895DF93CF93CDB768
:10236000DEB72E970FB6F894DEBF0FBECDBF8AE062
:1023700060E00E94AD098BE061E00E94AD0980E061
:1023800090E0A0EAB1E48B879C87AD87BE876B8520
:102390007C858D859E8520E030E04AEF54E40E94E4
:1023A0001F02DC01CB018F839887A987BA876F81D1
:1023B000788589859A8520E030E040E85FE30E94D7
:1023C000250488232CF481E090E09E838D833FC018
:1023D0006F81788589859A8520E03FEF4FE757E444
:1023E0000E94C50318164CF56B857C858D859E85EE
:1023F00020E030E040E251E40E941F02DC01CB010A
:10240000BC01CD010E944900DC01CB019E838D837C
:102410000FC088EC90E09C838B838B819C8101971B
:10242000F1F79C838B838D819E8101979E838D83A1
:102430008D819E81009769F714C06F8178858985A9
:102440009A850E944900DC01CB019E838D838D819A
:102450009E819A83898389819A810197F1F79A8372
:10246000898383E30E94221382E30E94221388E27D
:102470000E94221386E00E9422138CE00E94221305
:102480002E960FB6F894DEBF0FBECDBFCF91DF9171
:102490000895DF93CF93CDB7DEB768970FB6F89462
:1024A000DEBF0FBECDBF8BE060E00E94AD0980E0D3
:1024B00090E0A8ECB2E48D8B9E8BAF8BB88F6D89CA
:1024C0007E898F89988D2BEA3AEA4AE250E40E948D
:1024D0001F02DC01CB01898B9A8BAB8BBC8B69898A
:1024E0007A898B899C8920E030E040E85FE30E9494
:1024F000250488231CF481E0888B91C069897A893E
:102500008B899C8920E030E04FE753E40E94C503AB
:1025100018160CF07BC06D897E898F89988D20E01C
:1025200030E04AE754E40E941903DC01CB018C87B8
:102530009D87AE87BF876C857D858E859F8520E0D2
:1025400030E04AEF54E40E941F02DC01CB0188878F
:102550009987AA87BB87688579858A859B8520E0CE
:1025600030E040E85FE30E94250488232CF481E0FA
:1025700090E09F838E833FC0688579858A859B859F
:1025800020E03FEF4FE757E40E94C50318164CF5D3
:102590006C857D858E859F8520E030E040E251E4AA
:1025A0000E941F02DC01CB01BC01CD010E94490049
:1025B000DC01CB019F838E830FC088EC90E09D836C
:1025C0008C838C819D810197F1F79D838C838E8113
:1025D0009F8101979F838E838E819F81009769F7EA
:1025E00024C0688579858A859B850E944900DC0125
:1025F000CB019F838E838E819F819B838A838A8177
:102600009B810197F1F79B838A830FC069897A893F
:102610008B899C890E944900DC01CB01888B8889C9
:10262000898389818A95F1F789838BE061E00E9433
:10263000AD0968960FB6F894DEBF0FBECDBFCF913F
:10264000DF910895DF93CF93CDB7DEB76E970FB6C6
:10265000F894DEBF0FBECDBF8E8F1D8E89E060E087
:102660000E94AD0981E00E94140D8D8F8D8D982FF1
:102670009F708E8D807F892B8D8F81E06D8D0E9464
:10268000D30C0E94491280E090E0A0EAB0E4898F68
:102690009A8FAB8FBC8F698D7A8D8B8D9C8D20E04E
:1026A00030E04AEF54E40E941F02DC01CB018D8B25
:1026B0009E8BAF8BB88F6D897E898F89988D20E036
:1026C00030E040E85FE30E94250488232CF481E099
:1026D00090E09C8B8B8B3FC06D897E898F89988D14
:1026E00020E03FEF4FE757E40E94C50318164CF572
:1026F000698D7A8D8B8D9C8D20E030E040E251E435
:102700000E941F02DC01CB01BC01CD010E944900E7
:10271000DC01CB019C8B8B8B0FC088EC90E09A8BFB
:10272000898B89899A890197F1F79A8B898B8B8993
:102730009C8901979C8B8B8B8B899C89009769F76F
:1027400014C06D897E898F89988D0E944900DC01B3
:10275000CB019C8B8B8B8B899C89988B8F878F85EA
:1027600098890197F1F7988B8F8781E00E94140D6B
:102770008D8F8D8D282F2F708E8D882F90E08295D4
:102780009295907F9827807F9827822B8D8F81E06C
:102790006D8D0E94D30C0E94491280E090E0A0E071
:1027A000B0E48B879C87AD87BE876B857C858D85E4
:1027B0009E8520E030E04AEF54E40E941F02DC01D5
:1027C000CB018F839887A987BA876F8178858985A0
:1027D0009A8520E030E040E85FE30E9425048823EA
:1027E0002CF481E090E09E838D833FC06F817885DB
:1027F00089859A8520E03FEF4FE757E40E94C503A3
:1028000018164CF56B857C858D859E8520E030E023
:1028100040E251E40E941F02DC01CB01BC01CD016A
:102820000E944900DC01CB019E838D830FC088ECA0
:1028300090E09C838B838B819C810197F1F79C8333
:102840008B838D819E8101979E838D838D819E8157
:10285000009769F714C06F81788589859A850E94F1
:102860004900DC01CB019E838D838D819E819A83FB
:10287000898389819A810197F1F79A8389836E967A
:102880000FB6F894DEBF0FBECDBFCF91DF91089594
:10289000DF93CF93CDB7DEB76E970FB6F894DEBF58
:1028A0000FBECDBF8E8F1D8E89E061E00E94AD0905
:1028B00081E00E94140D8D8F8D8D982F9F708E8DCD
:1028C000807F892B8D8F81E06D8D0E94D30C0E94BB
:1028D000491280E090E0A0EAB0E4898F9A8FAB8F34
:1028E000BC8F698D7A8D8B8D9C8D20E030E04AEF16
:1028F00054E40E941F02DC01CB018D8B9E8BAF8BB9
:10290000B88F6D897E898F89988D20E030E040E80E
:102910005FE30E94250488232CF481E090E09C8BE7
:102920008B8B3FC06D897E898F89988D20E03FEF2A
:102930004FE757E40E94C50318164CF5698D7A8D50
:102940008B8D9C8D20E030E040E251E40E941F021C
:10295000DC01CB01BC01CD010E944900DC01CB01AF
:102960009C8B8B8B0FC088EC90E09A8B898B89892C
:102970009A890197F1F79A8B898B8B899C890197AA
:102980009C8B8B8B8B899C89009769F714C06D8910
:102990007E898F89988D0E944900DC01CB019C8B38
:1029A0008B8B8B899C89988B8F878F8598890197D2
:1029B000F1F7988B8F8781E00E94140D8D8F8D8D9C
:1029C000282F2F708E8D882F90E082959295907F82
:1029D0009827807F9827822B8D8F81E06D8D0E94B4
:1029E000D30C0E94491280E090E0A0E0B0E48B8715
:1029F0009C87AD87BE876B857C858D859E8520E015
:102A000030E04AEF54E40E941F02DC01CB018F83C7
:102A10009887A987BA876F81788589859A8520E00C
:102A200030E040E85FE30E94250488232CF481E035
:102A300090E09E838D833FC06F81788589859A85DC
:102A400020E03FEF4FE757E40E94C50318164CF50E
:102A50006B857C858D859E8520E030E040E251E4E9
:102A60000E941F02DC01CB01BC01CD010E94490084
:102A7000DC01CB019E838D830FC088EC90E09C83AA
:102A80008B838B819C810197F1F79C838B838D8154
:102A90009E8101979E838D838D819E81009769F72A
:102AA00014C06F81788589859A850E944900DC0170
:102AB000CB019E838D838D819E819A8389838981B9
:102AC0009A810197F1F79A8389836E960FB6F894ED
:102AD000DEBF0FBECDBFCF91DF910895DF93CF93BF
:102AE00000D00F92CDB7DEB79B838A8319820EC0C8
:102AF0008981282F30E08A819B81FC01E20FF31F3E
:102B000080810E94481489818F5F89838981282F61
:102B100030E08A819B81FC01E20FF31F80818823D2
:102B200039F70F900F900F90CF91DF910895DF93B9
:102B3000CF9300D000D0CDB7DEB789836A83898177
:102B4000282F30E03C832B838B819C818130910541
:102B500031F02B813C812230310539F00BC08A8164
:102B60008F7080680E94221305C08A818F70806CEC
:102B70000E9422130F900F900F900F90CF91DF9132
:102B80000895DF93CF93CDB7DEB781E00E94221383
:102B9000CF91DF910895DF93CF9300D000D0CDB7D0
:102BA000DEB78A837C836B838A818830F8F48A81DC
:102BB000882F90E00896880F991F880F991F880F1B
:102BC000991F0E94221319820EC08981282F30E09C
:102BD0008B819C81FC01E20FF31F80810E944814CD
:102BE00089818F5F89838981883078F30F900F9076
:102BF0000F900F90CF91DF910895DF93CF93CDB7D2
:102C0000DEB7AA970FB6F894DEBF0FBECDBF0E9405
:102C1000E11782E00E94890F8093FE008091FE0000
:102C2000982F906282E0692F0E946A0F83E00E94D1
:102C3000890F8093FE008091FE00982F906883E0BA
:102C4000692F0E946A0F2FEF30E082E5B9010E94E0
:102C5000B50F8093FE0080E090E0A8ECB2E48FA373
:102C600098A7A9A7BAA76FA178A589A59AA520E0DA
:102C700030E04AEF54E40E941F02DC01CB018BA339
:102C80009CA3ADA3BEA36BA17CA18DA19EA120E0BE
:102C900030E040E85FE30E94250488232CF481E0C3
:102CA00090E09AA389A33FC06BA17CA18DA19EA1B6
:102CB00020E03FEF4FE757E40E94C50318164CF59C
:102CC0006FA178A589A59AA520E030E040E251E403
:102CD0000E941F02DC01CB01BC01CD010E94490012
:102CE000DC01CB019AA389A30FC088EC90E098A3E4
:102CF0008F8F8F8D98A10197F1F798A38F8F89A15E
:102D00009AA101979AA389A389A19AA1009769F72B
:102D100014C06BA17CA18DA19EA10E944900DC0181
:102D2000CB019AA389A389A19AA19E8F8D8F8D8DA6
:102D30009E8D0197F1F79E8F8D8F8091FE008130DF
:102D400069F58FEF90E00E9451118093FE00809111
:102D5000FE00813019F580E061E00E94AD0981E05C
:102D60008093FC0080E40E9446081092FE000FC091
:102D70008091FE00882F90E0FC01E150FF4F8081A0
:102D80000E9446088091FE008F5F8093FE00809134
:102D9000FE00883068F38BE30E9446088091FC00B7
:102DA000813009F050CF1092FC000E94600880939F
:102DB000FD008091FD00813309F07FC081E061E07A
:102DC0000E94AD0980E090E0AAEFB3E4898F9A8F6A
:102DD000AB8FBC8F698D7A8D8B8D9C8D20E030E020
:102DE0004AEF54E40E941F02DC01CB018D8B9E8BC5
:102DF000AF8BB88F6D897E898F89988D20E030E008
:102E000040E85FE30E94250488232CF481E090E0F1
:102E10009C8B8B8B3FC06D897E898F89988D20E03C
:102E20003FEF4FE757E40E94C50318164CF5698D34
:102E30007A8D8B8D9C8D20E030E040E251E40E9441
:102E40001F02DC01CB01BC01CD010E944900DC0165
:102E5000CB019C8B8B8B0FC088EC90E09A8B898B7D
:102E600089899A890197F1F79A8B898B8B899C893B
:102E700001979C8B8B8B8B899C89009769F714C079
:102E80006D897E898F89988D0E944900DC01CB0174
:102E90009C8B8B8B8B899C89988B8F878F8598894E
:102EA0000197F1F7988B8F8781E060E00E94AD0970
:102EB00080E060E00E94AD09C6CE8091FD008233C3
:102EC00009F0C1CE82E061E00E94AD0980E090E0AF
:102ED000AAEFB3E48B879C87AD87BE876B857C8523
:102EE0008D859E8520E030E04AEF54E40E941F0269
:102EF000DC01CB018F839887A987BA876F8178859A
:102F000089859A8520E030E040E85FE30E9425044F
:102F100088232CF481E090E09E838D833FC06F81F5
:102F2000788589859A8520E03FEF4FE757E40E9436
:102F3000C50318164CF56B857C858D859E8520E034
:102F400030E040E251E40E941F02DC01CB01BC01F1
:102F5000CD010E944900DC01CB019E838D830FC00F
:102F600088EC90E09C838B838B819C810197F1F7A7
:102F70009C838B838D819E8101979E838D838D8120
:102F80009E81009769F714C06F81788589859A853D
:102F90000E944900DC01CB019E838D838D819E813F
:102FA0009A83898389819A810197F1F79A8389832A
:102FB00082E060E00E94AD0980E060E00E94AD091F
:102FC00042CEDF93CF93CDB7DEB788EA90E00E9480
:102FD0008E080E94310F0E94170780E061E00E9476
:102FE0003E0B81E061E00E943E0B82E061E00E94C6
:102FF0003E0BCF91DF9108952F923F924F925F92B7
:103000006F927F928F929F92AF92BF92CF92DF92F8
:10301000EF92FF920F931F93CF93DF93CDB7DEB75D
:10302000CA1BDB0B0FB6F894DEBF0FBECDBF0994F1
:103030002A88398848885F846E847D848C849B8448
:10304000AA84B984C884DF80EE80FD800C811B8156
:10305000AA81B981CE0FD11D0FB6F894DEBF0FBE85
:0A306000CDBFED010895F894FFCFF5
:10306A00000000000000000001010101010101014E
:10307A000101010101010101010101010101010136
:10308A000101010101010101010101010101010126
:10309A000101010101010101010101010101010116
:1030AA0001010101010101010103010000006700A2
:1030BA003300190010000C000800CF00670033002D
:1030CA00220019001000A001CF006700440033005D
:1030DA002200CF0067003300220019001000A0016F
:1030EA00CF0067004400330022004003A001CF0054
:0630FA008A00670044009B
:00000001FF
